:020000040800F2
:1000000000000220252600083D0D00083F0D0008D5
:10001000410D0008430D0008450D000800000000D8
:10002000000000000000000000000000470D000874
:10003000490D0008000000004B0D00084D0D0008A0
:100040007526000875260008752600087526000824
:100050007526000875260008490600087526000860
:100060007526000875260008752600087526000804
:1000700075260008752600087526000875260008F4
:10008000550D00087526000875260008752600081D
:1000900075260008752600087526000875260008D4
:1000A00075260008752600087526000875260008C4
:1000B00075260008752600087526000875260008B4
:1000C00075260008752600087526000875260008A4
:1000D0007526000875260008752600087526000894
:1000E0007526000875260008752600087526000884
:1000F0007526000875260008752600087526000874
:100100007526000875260008752600087526000863
:100110007526000875260008752600087526000853
:100120007526000875260008752600087526000843
:100130007526000800000000000000007526000879
:100140007526000875260008752600087526000823
:100150007526000875260008752600087526000813
:100160007526000875260008752600087526000803
:100170007526000875260008752600080000000096
:1001800000000000752600080000000000000000CC
:100190007526000800000000000000007526000819
:1001A00000000000000000000000000075260008AC
:1001B00075260008752600087526000875260008B3
:0401C0007526000898
:1001C40010B5054C237833B9044B13B10448AFF38D
:1001D40000800123237010BD100C002000000000DB
:1001E400D026000808B5034B1BB103490348AFF3FD
:1001F400008008BD00000000140C0020D026000878
:1002040053B94AB9002908BF00281CBF4FF0FF3179
:100214004FF0FF3000F088B9ADF1080C6DE904CE61
:1002240000F006F8DDF804E0DDE9022304B07047CD
:100234002DE9F047089D8E4604468846002B4AD196
:100244008A42174662D9B2FA82F64EB1C6F1200349
:1002540001FA06F820FA03F3B74043EA0808B44069
:100264004FEA174E1FFA87FCB8FBFEF1230C0EFB76
:10027400118843EA084301FB0CF29A4209D9FB189E
:1002840001F1FF3080F0EA809A4240F2E7800239BF
:100294003B449A1AA3B2B2FBFEF00EFB102243EACF
:1002A400024300FB0CFC9C4509D9FB1800F1FF320A
:1002B40080F0D6809C4540F2D3803B44023840EA2B
:1002C4000140A3EB0C0300211DB1F3400022C5E95A
:1002D4000032BDE8F0878B4205D90DB1C5E90001B4
:1002E40000210846F5E7B3FA83F1002946D17345A6
:1002F40002D3824200F20581841A6EEB03020120CC
:100304009046002DE5D0C5E90048E2E7002A00F058
:100314009080B2FA82F6002E40F0A4808A1A030C70
:100324004FEA174E80B2BCB20121B2FBFEFC0EFBB9
:100334001C2243EA024304FB0CF29A4207D9FB183D
:100344000CF1FF3802D29A4200F2E080C4469B1AB4
:10035400B3FBFEF20EFB123340EA034302FB04F448
:100364009C4207D9FB1802F1FF3002D29C4200F2F2
:10037400CA8002461B1B42EA0C40A5E7C1F12006D5
:100384008B4022FA06F71F430EFA01F420FA06F313
:100394002EFA06FE4FEA1749234300FA01F81FFA22
:1003A40087FCBEFBF9F01C0C09FB10EE44EA0E447A
:1003B40000FB0CFEA64502FA01F209D93C1900F132
:1003C400FF3A80F09C80A64540F2998002383C4474
:1003D400A4EB0E041FFA83FEB4FBF9F309FB1344E8
:1003E4004EEA044403FB0CFCA44508D93C1903F170
:1003F400FF3E80F08280A4457FD9023B3C4443EA1F
:100404000040A4EB0C04A0FB02EC64457346E146F7
:1004140062D35FD05DB1B8EB030264EB090404FA64
:1004240006F622FA01F31E43CC40C5E9006400211C
:100434004FE7B1FBF2FC010C41EA0E4180B240EA05
:1004440001423B4638463C46B846BE462026B1FBF0
:10045400F7F1A2EB080241EA0C4166E7014618E70E
:1004640010462CE7C6F120022EFA02F3B740B14041
:1004740020FA02F24FEA174E0A43B3FBFEF8BCB26D
:100484000EFB1833110C41EA034108FB04F9B04098
:1004940089454FEA104380B23ED9791808F1FF3CF0
:1004A40001D289451FD8A1EB0901B1FBFEF909FB73
:1004B40004F80EFB191192B242EA0142424529D2D4
:1004C400BA1809F1FF31C4D24245C2D2A9F10201DE
:1004D4003A44BEE7F0459DD2BEEB02036CEB070C39
:1004E4000138E14696E7A7EB09094944A8F1020C53
:1004F400B1FBFEF909FB04F8DBE773467FE75046DE
:1005040066E70846FDE63B44023A33E7ACF1020CE9
:100514003B441CE749469CE7A1EB0901C446B1FBF7
:10052400FEF909FB04F8C4E7704700BF2DE9F04F5A
:1005340089B00024039404940594069407940094C9
:100544002F4B1A6B42F080021A631A6B02F080027E
:100554000092009A01941A6B42F001021A631A6B1A
:1005640002F001020192019A02941A6B42F0020213
:100574001A631B6B03F002030293029B4FF4404B7C
:10058400CDF80CB001260496DFF87CA003A95046F0
:1005940001F050FC4FF44079CDF80C90DFF86C80FA
:1005A40003A9404601F046FC4FF410470397154D4C
:1005B40003A9284601F03EFC22465946504601F064
:1005C40029FD22464946404601F024FD224639468B
:1005D400284601F01FFD03964FF4881304930596F3
:1005E40003A9284601F026FC22460221062001F038
:1005F40093FF062001F0A0FF09B0BDE8F08F00BF13
:10060400003802400000024000080240000402409A
:1006140000B583B000210191094B1A6B42F400121A
:100624001A631B6B03F400130193019B0A46102009
:1006340001F072FF102001F07FFF03B05DF804FBAE
:100644000038024008B501F0DBFF414B1B68C31AB8
:10065400C82B03D8012001F0E5FC08BD3C4B186011
:100664003C4B1A68D36823F40073D3603A4801F012
:10067400FEFD3A490A780132394B83FB020303EB4E
:100684004303A2EB4303DBB20B700B78DBB2052B05
:1006940011D8DFE803F003172533414F8023314A93
:1006A400126831492C4801F0ADFD012000F084FAB4
:1006B4002E4800F075FA274B1A68D36843F4007388
:1006C400D360C7E78023274A12682949224801F0EA
:1006D40099FD012000F070FA264800F061FAEAE77B
:1006E4008023204A126824491B4801F08BFD012015
:1006F40000F062FA214800F053FADCE78023194A3B
:1007040012681F49144801F07DFD012000F054FADD
:100714001C4800F045FACEE78023124A12681A49B1
:100724000D4801F06FFD012000F046FA174800F073
:1007340037FAC0E780230B4A12681549064801F0CE
:1007440061FD012000F038FA124800F029FAB2E7FE
:100754002C0C0020DC0C0020340C0020300C002079
:10076400ABAAAA2A0000002004000020E826000802
:10077400040A0020F026000804080020FC260008D3
:10078400040600200827000804040020102700089D
:10079400040200201827000872B6FEE700B58FB0E7
:1007A40000230A930B930C930D93089309930193DD
:1007B40002930393049305930693079335484FF0EC
:1007C400804202604360836040F21B12C260036196
:1007D400836100F08BFC002850D14FF480530A93BE
:1007E4000AA92C4800F0E8FD002849D1294800F066
:1007F400A9FC002846D100230893099308A9254899
:1008040000F06CFF00283FD1002201920292039273
:10081400059201A91F4800F025FD002836D10023C8
:1008240000931D4A116B41F400111163126B02F421
:1008340000120092009A1948194A02604FF0C062EF
:10084400426040228260C3604FF4806202614FF4D0
:10085400805242614FF4804282614FF48072C261DF
:100864004FF400320262436201F066FC80B9094A27
:100874000A4B53629A630FB05DF804FBFFF78CFFD9
:10088400FFF78AFFFFF788FFFFF786FFFFF784FF74
:10089400FFF782FFDC0C002000380240340C0020FB
:1008A4008860024000B58FB000230A930B930C9329
:1008B4000D9308930993019302930393049305936F
:1008C400069307931E481F4A0260436083604FF6F5
:1008D400FF72C2600361836100F008FC28BB4FF41F
:1008E40080530A930AA9164800F066FDF8B9144823
:1008F40000F054FCE8B900230893099308A91048B0
:1009040000F0ECFEB8B96023019300230293039333
:100914000593082201A90A4800F0D3FC68B90848E5
:1009240000F086FA0FB05DF804FBFFF735FFFFF720
:1009340033FFFFF731FFFFF72FFFFFF72DFF00BF56
:10094400940C00200004004000B595B0342200212E
:1009540007A801F08EFE00230293039304930593EA
:1009640006930093194A116C41F080511164126C82
:1009740002F080520092009A019315490A6822F409
:10098400404242F480420A600A6802F44042019202
:10099400019A0222079201220A9210220B920D93CD
:1009A40007A801F025F868B90F23029300210391E9
:1009B40004910591069102A800F0D6FE20B915B065
:1009C4005DF804FBFFF7E8FEFFF7E6FE003802409F
:1009D4000070004008B501F0EDFDFFF7B5FFFFF72B
:1009E400A5FDFFF715FEFFF7D9FEFFF75BFF082112
:1009F4000E4800F0F1FD0E4C0021204600F06AFD87
:100A040080230C4A12680C490C4801F0FBFB00F0EF
:100A14005BF9012000F0D0F8094800F0C1F8226821
:100A2400D36843F40073D360FEE700BF940C002046
:100A3400DC0C00200000002004000020340C002006
:100A4400E826000882B000EB40000023019304E094
:100A540000BF00BF019B01330193019B8342F7D385
:100A640002B0704710B51420FFF7ECFF094CA369DE
:100A740043F40043A3611420FFF7E4FFA36943F0A8
:100A84000043A3611420FFF7DDFFA36943F400438F
:100A9400A36110BD0008024010B504463D4A9369A5
:100AA40043F48043936110F0800F41D13A4A936933
:100AB40043F00043936114F0400F40D0364A9369E9
:100AC40043F48053936114F0200F3ED0334A93696A
:100AD40043F40073936114F0100F3CD02F4A9369D0
:100AE40043F480739361FFF7BDFF14F0080F38D00F
:100AF400294A936943F40043936114F0040F36D0F8
:100B0400254A936943F48053936114F0020F34D05F
:100B1400224A936943F40073936114F0010F32D0B5
:100B24001E4A936943F480739361FFF79BFF10BDE2
:100B3400A2F50062936943F400439361BBE7164A4C
:100B4400936943F080539361BDE7144A936943F07A
:100B540000739361BFE7114A936943F08073936113
:100B6400C1E70D4A936943F000439361C5E70A4A1C
:100B7400936943F080539361C7E7084A936943F04C
:100B840000739361C9E7054A936943F080739361E5
:100B9400CBE700BF0008024000000240000402400E
:100BA40038B50546002403E0FFF776FF0134E4B2CC
:100BB400285D0028F8D138BD10B504463F4A936932
:100BC40043F08043936110F0800F45D13C4A936910
:100BD40043F00043936114F0400F44D0384A9369C2
:100BE40043F48053936114F0200F42D0354A936943
:100BF40043F40073936114F0100F40D0314A9369A9
:100C040043F480739361FFF72DFF14F0080F3CD079
:100C14002B4A936943F40043936114F0040F3AD0D0
:100C2400274A936943F48053936114F0020F38D038
:100C3400244A936943F40073936114F0010F36D08E
:100C4400204A936943F480739361FFF70BFF40F6E6
:100C5400B830FFF7F7FE10BDA2F50062936943F4C4
:100C640000439361B7E7164A936943F08053936155
:100C7400B9E7144A936943F000739361BBE7114ADF
:100C8400936943F080739361BDE70D4A936943F020
:100C940000439361C1E70A4A936943F08053936127
:100CA400C3E7084A936943F000739361C5E7054AB3
:100CB400936943F080739361C7E700BF0008024063
:100CC400000002400004024008B5194B1A6B42F0C0
:100CD40001021A631A6B42F002021A631A6B42F0A1
:100CE40004021A63134A136843F08243136002F543
:100CF4008062136843F4A023136002F580621368D2
:100D040043F0A043136047F23050FFF79BFE3320BB
:100D1400FFF752FF3220FFF74FFF0C20FFF74CFF85
:100D24002820FFF749FF0120FFF746FF08BD00BF59
:100D34000038024000000240FEE7FEE7FEE7FEE75F
:100D4400FEE770477047704708B501F04DFC08BDD9
:100D540008B5024801F09EFA08BD00BF340C00201B
:100D640082B0002100910B4B5A6C42F480425A64C9
:100D74005A6C02F480420092009A01911A6C42F07B
:100D840080521A641B6C03F080530193019B02B0E0
:100D9400704700BF0038024010B582B00368B3F159
:100DA400804F04D01E4A93422CD002B010BD04469A
:100DB400002300931B4A116C41F001011164126C71
:100DC40002F001020092009A1748184A02604FF09C
:100DD400C06242608360C3604FF4806202614FF47A
:100DE400805242614FF480428261C3610362436274
:100DF40001F0A2F918B90C4B63629C63D5E7FFF7C5
:100E0400CBFCF8E700230193064B1A6C42F0020274
:100E14001A641B6C03F002030193019BC5E700BF36
:100E24000004004000380240340C00208860024076
:100E340000B587B0002301930293039304930593B1
:100E440002680E4B9A4202D007B05DF804FB0023FF
:100E540000930B4B1A6B42F002021A631B6B03F0F4
:100E640002030093009B0123019302230293059341
:100E740001A9044800F0DEFFE6E700BF00040040DB
:100E8400003802400004024030B4036A026A22F0CF
:100E9400010202624268846924F0730C0C6844EA1B
:100EA4000C0423F0020C8B6843EA0C03114DA84296
:100EB40003D005F58065A84205D123F00803CD6869
:100EC4002B4323F004030B4DA84203D005F58065A2
:100ED400A84207D122F440724D6945EA020C8A699E
:100EE40042EA0C02426084614A684263036230BC95
:100EF400704700BF0000014030B4036A026A22F464
:100F0400807202624268C46924F0730C0C6844EA7B
:100F14000C0523F400738C6843EA0423114CA042AB
:100F240003D004F58064A04206D123F40063CC68A6
:100F340043EA042323F480630A4CA04203D004F55B
:100F44008064A04207D122F440524C6942EA041260
:100F54008C6942EA04124260C5614A68C263036252
:100F640030BC70470000014030B4036A026A22F4C6
:100F7400805202624468C26922F4E6420D6842EA81
:100F8400052223F400538D6843EA0533094DA84232
:100F940003D005F58065A84204D124F480444D694A
:100FA40044EA85144460C2614A680264036230BC46
:100FB400704700BF0000014010B4036A046A24F0C3
:100FC40001040462846924F0F00C4CEA021223F058
:100FD4000A030B43826103625DF8044B704710B44B
:100FE400036A046A24F010040462846924F4704CD3
:100FF4004CEA023223F0A00343EA01138261036244
:101004005DF8044B7047836823F070030B4343F08F
:101014000703836070477047704700000368324AD3
:10102400904212D0B0F1804F0FD0A2F57C42904292
:101034000BD002F58062904207D002F580629042A4
:1010440003D002F57842904203D123F070034A683A
:101054001343254A90422AD0B0F1804F27D0A2F5FD
:101064007C42904223D002F5806290421FD002F568
:10107400806290421BD002F57842904217D002F56C
:101084007052904213D002F5806290420FD002F564
:10109400806290420BD0A2F59832904207D002F5BC
:1010A4008062904203D002F58062904203D123F41F
:1010B4004073CA68134323F080034A6913438A6860
:1010C400C2620A688262084A904203D002F58062D2
:1010D400904201D10A690263026842F0040202608C
:1010E40001224261036070470000014040B310B523
:1010F400044690F83D30F3B1022384F83D30214694
:1011040051F8040BFFF78AFF012384F8463084F872
:101114003E3084F83F3084F8403084F8413084F81D
:10112400423084F8433084F8443084F8453084F8FD
:101134003D30002010BD80F83C30FFF72DFEDBE78A
:101144000120704740B310B5044690F83D30F3B128
:10115400022384F83D30214651F8040BFFF75EFF6B
:10116400012384F8463084F83E3084F83F3084F814
:10117400403084F8413084F8423084F8433084F8B5
:10118400443084F8453084F83D30002010BD80F8A8
:101194003C30FFF740FFDBE70120704740B310B558
:1011A400044690F83D30F3B1022384F83D302146E3
:1011B40051F8040BFFF732FF012384F8463084F81A
:1011C4003E3084F83F3084F8403084F8413084F86D
:1011D400423084F8433084F8443084F8453084F84D
:1011E4003D30002010BD80F83C30FFF715FFDBE7F1
:1011F4000120704730B4036A026A22F010020262CE
:101204004468826922F4E6420D6842EA052223F02A
:1012140020038D6843EA0513114DA84203D005F558
:101224008065A84206D123F08003CD6843EA051304
:1012340023F040030A4DA84203D005F58065A84277
:1012440007D124F440644D6944EA85048D6944EA75
:101254008504446082614A688263036230BC7047DB
:101264000000014090F83C30012B28D010B5044612
:10127400012380F83C300C2A1CD8DFE802F0071B5D
:101284001B1B0C1B1B1B111B1B1B16000068FFF7F1
:10129400FBFD00200FE00068FFF7ACFF00200AE030
:1012A4000068FFF729FE002005E00068FFF75CFEF8
:1012B400002000E00120002384F83C3010BD02200F
:1012C400704738B590F83C30012B66D004460D4683
:1012D400012380F83C300C2A5AD8DFE802F0075981
:1012E40059591B5959593059595944000068FFF745
:1012F400CBFD2268936943F00803936122689369E4
:1013040023F0040393612268936929690B43936171
:1013140000203EE00068FFF76DFF2268936943F404
:10132400006393612268936923F480639361226864
:101334009369296943EA01239361002029E0006845
:10134400FFF7DAFD2268D36943F00803D36122680A
:10135400D36923F00403D3612268D36929690B4359
:10136400D361002015E00068FFF7FEFD2268D36911
:1013740043F40063D3612268D36923F48063D361A7
:101384002268D369296943EA0123D361002000E07C
:101394000120002384F83C3038BD0220FCE710B45F
:1013A400846824F47F4C42EA03220A4342EA0C0292
:1013B40082605DF8044B704790F83C30012B78D084
:1013C40010B50446012380F83C30022380F83D30F8
:1013D4000268936823F47F4323F0770393600B68D8
:1013E400602B4CD023D8402B54D011D8202B03D0C1
:1013F4000AD80BB1102B05D119462068FFF703FE5C
:10140400002028E0012026E0302BF5D0012022E046
:10141400502B0AD1CA6849680068FFF7CDFD5021F6
:101424002068FFF7F0FD002015E0012013E0B3F57C
:10143400805F3AD0B3F5005F14D0702B37D1CB68FE
:101444004A6889680068FFF7AAFF2268936843F036
:10145400770393600020012384F83D30002384F84F
:101464003C3010BDCB684A6889680068FFF797FF75
:101474002268936843F4804393600020EBE7CA68D2
:1014840049680068FFF7ABFD60212068FFF7BBFDEA
:101494000020E0E7CA6849680068FFF78DFD402135
:1014A4002068FFF7B0FD0020D5E70020D3E7012036
:1014B400D1E70220704701F01F014FF0010C0CFA34
:1014C40001FC036A23EA0C030362036A8A401343A0
:1014D4000362704710B504460846002942D194F8C7
:1014E4003E30DBB2013B18BF0123002B6ED1002834
:1014F40051D1022384F83E30012201462068FFF7CF
:10150400DAFF2368334A934203D002F580629342A0
:1015140003D15A6C42F400425A6423682D4A934220
:1015240049D0B3F1804F46D0A2F57C42934242D0D9
:1015340002F5806293423ED002F5806293423AD033
:1015440002F57842934236D002F57052934232D07B
:10155400A2F5943293422ED01A6842F001021A6026
:10156400002032E0042908D008290DD094F8413035
:10157400DBB2013B18BF0123B7E794F83F30DBB27D
:10158400013B18BF0123B0E794F84030DBB2013BC4
:1015940018BF0123A9E7042805D0082807D002238F
:1015A40084F84130A8E7022384F83F30A4E70223FB
:1015B40084F84030A0E79A6802F00702062A07D0B0
:1015C4001A6842F001021A60002010BD0120FCE7F5
:1015D4000020FAE70000014010B50446084600293F
:1015E40042D194F83E30DBB2013B18BF0123002BFB
:1015F4006ED1002851D1022384F83E3001220146E5
:101604002068FFF758FF2368334A934203D002F55A
:101614008062934203D15A6C42F400425A642368B4
:101624002D4A934249D0B3F1804F46D0A2F57C4273
:10163400934242D002F5806293423ED002F580622A
:1016440093423AD002F57842934236D002F5705272
:10165400934232D0A2F5943293422ED01A6842F0CB
:1016640001021A60002032E0042908D008290DD0B4
:1016740094F84130DBB2013B18BF0123B7E794F87B
:101684003F30DBB2013B18BF0123B0E794F8403090
:10169400DBB2013B18BF0123A9E7042805D00828C1
:1016A40007D0022384F84130A8E7022384F83F30AE
:1016B400A4E7022384F84030A0E79A6802F0070206
:1016C400062A07D01A6842F001021A60002010BDF1
:1016D4000120FCE70020FAE70000014090F83C20DC
:1016E400012A3DD010B40346012280F83C20022296
:1016F40080F83D2002685068946820F0700C0868F7
:1017040040EA0C0050601A68164882421AD0B2F1BE
:10171400804F17D0A0F57C40824213D000F5806042
:1017240082420FD000F5806082420BD000F57840F1
:10173400824207D000F57050824203D0A0F5943065
:10174400824204D124F0800449682143916001223B
:1017540083F83D20002083F83C005DF8044B70477B
:101764000220704700000140002800F09B8070B503
:101774000D4604464F4B1B6803F00F038B4208D2FF
:10178400CBB24C4A1370136803F00F038B4240F042
:101794008B80236813F0020F17D013F0040F04D0CA
:1017A400454A936843F4E0539360236813F0080FA9
:1017B40004D0414A936843F4604393603E4A93687B
:1017C40023F0F003A1680B439360236813F0010F27
:1017D40032D06368012B21D09A1E012A25D9364ABA
:1017E400126812F0020F61D033498A6822F00302B2
:1017F40013438B6000F004FF06462F4B9B6803F0F5
:101804000C036268B3EB820F16D000F0F9FE801B64
:1018140041F288339842F0D9032042E0264A126804
:1018240012F4003FE0D101203BE0234A126812F099
:10183400007FD9D1012034E01E4B1B6803F00F0355
:10184400AB4207D9EAB21B4B1A701B6803F00F03B3
:10185400AB422DD1236813F0040F06D0164A9368C7
:1018640023F4E053E1680B439360236813F0080FFB
:1018740007D0114A936823F46043216943EAC10302
:10188400936000F021F80C4B9B68C3F303130B4ADD
:10189400D35CD8400A4B18600A4B186800F064FE09
:1018A400002070BD012070470120FAE70120F8E70D
:1018B4000120F6E7003C02400038024028270008D7
:1018C4000C0C0020080C002008B5464B9B6803F064
:1018D4000C03082B05D00C2B43D0042B7FD142489A
:1018E40019E0404B5A6802F03F025B6813F4800F22
:1018F40012D03C4B5968C1F388113B480023A1FB2B
:101904000001FEF77DFC374B5B68C3F301430133F1
:101914005B00B0FBF3F008BD324B5868C0F388108D
:101924004FEA401CBCEB000C6EEB0E0E4FEA8E131C
:1019340043EA9C634FEA8C11B1EB0C0163EB0E0399
:10194400DB0043EA5173C90011EB000C43F10003BF
:10195400990200234FEA8C2041EA9C51FEF750FC87
:10196400D1E7204B5A6802F03F025B6813F4800F02
:1019740010D01C4B5968C1F388111B480023A1FBEC
:101984000001FEF73DFC174B5B68C3F30273B0FB29
:10199400F3F0C0E7134B5868C0F388104FEA401CBB
:1019A400BCEB000C6EEB0E0E4FEA8E1343EA9C6305
:1019B4004FEA8C11B1EB0C0163EB0E03DB0043EA3D
:1019C4005173C90011EB000C43F100039902002389
:1019D4004FEA8C2041EA9C51FEF712FCD3E70348FE
:1019E40099E700BF0038024040787D010024F400EC
:1019F400002800F0018270B582B00446036813F039
:101A0400010F41D0994B9B6803F00C03042B32D097
:101A1400964B9B6803F00C03082B27D0934B9B68D1
:101A240003F00C030C2B59D06368B3F5803F5BD0F3
:101A3400B3F5A02F5ED08D4B1A6822F480321A6061
:101A44001A6822F480221A606368002B5CD000F0CC
:101A5400D7FD0546854B1B6813F4003F14D100F0F5
:101A6400CFFD401B6428F5D90320CCE17F4B5B6894
:101A740013F4800FD2D07D4B1B6813F4003F03D0C6
:101A84006368002B00F0BA81236813F0020F60D062
:101A9400764B9B6813F00C0F4AD0744B9B6803F091
:101AA4000C03082B3FD0714B9B6803F00C030C2BE9
:101AB40069D0E368002B75D06D4B01221A6000F0E9
:101AC4009FFD0546694B1B6813F0020F61D100F0BE
:101AD40097FD401B0228F5D9032094E1634B5B6812
:101AE40013F4800FA0D0C6E7604A136843F4803330
:101AF4001360A9E75D4B1A6842F480221A601A68E1
:101B040042F480321A609FE700F07AFD0546574B95
:101B14001B6813F4003FB7D000F072FD401B64282B
:101B2400F5D903206FE1514B5B6813F4800FBAD1F0
:101B34004E4B1B6813F0020F03D0E368012B40F0F7
:101B44005F814A4A136823F0F803216943EAC10319
:101B54001360236813F0080F49D06369002B33D056
:101B6400434B0122C3F8802E00F04AFD05463F4B4B
:101B74005B6F13F0020F3AD100F042FD401B0228C4
:101B8400F5D903203FE1394B5B6813F4800F90D102
:101B9400CEE7364A136823F0F803216943EAC10308
:101BA4001360D6E7324B00221A6000F029FD054687
:101BB4002E4B1B6813F0020FCBD000F021FD401B0D
:101BC4000228F5D903201EE1294B0022C3F8802EF8
:101BD40000F016FD0546254B5B6F13F0020F06D08F
:101BE40000F00EFD401B0228F5D903200BE1236809
:101BF40013F0040F76D01D4B1B6C13F0805F33D1B0
:101C040000230193194B1A6C42F080521A641B6C26
:101C140003F080530193019B0125164B1B6813F4B9
:101C2400807F29D0A368012B3AD0052B3ED00F4BDF
:101C34001A6F22F001021A671A6F22F004021A675F
:101C4400A368002B3CD000F0DBFC0646074B1B6F5F
:101C540013F0020F45D100F0D3FC801B41F288330E
:101C64009842F3D90320CEE00025D6E7003802409D
:101C740000004742007000406B4A136843F48073CD
:101C8400136000F0BDFC0646674B1B6813F4807FAD
:101C9400C8D100F0B5FC801B0228F5D90320B2E0BE
:101CA400624A136F43F001031367C9E75F4B1A6F6E
:101CB40042F004021A671A6F42F001021A67BFE782
:101CC40000F09EFC0646594B1B6F13F0020F08D020
:101CD40000F096FC801B41F288339842F3D903202C
:101CE40091E0EDB9A369002B00F08C804F4A926813
:101CF40002F00C02082A54D0022B17D04C4B0022BD
:101D04001A6600F07DFC0446484B1B6813F0007F04
:101D140045D000F075FC001B0228F5D9032072E0C1
:101D2400424A136C23F080531364DBE7404B0022D8
:101D34001A6600F065FC05463C4B1B6813F0007FF7
:101D440006D000F05DFC401B0228F5D903205AE0C0
:101D5400E369226A1343626A43EA8213A26A52085D
:101D6400013A43EA0243E26A43EA0263226B43EA2A
:101D740002732E4A53602E4B01221A6600F040FC77
:101D840004462A4B1B6813F0007F06D100F038FC90
:101D9400001B0228F5D9032035E0002033E00020A1
:101DA40031E0012B31D0214B5B6803F48001E269FF
:101DB40091422CD103F03F02216A8A4229D1616AFF
:101DC40047F6C0721A40B2EB811F24D103F44031AC
:101DD400A26A5208013AB1EB024F1ED103F07062BD
:101DE400E16AB2EB016F1AD103F0E043226BB3EB6B
:101DF400027F16D1002006E001207047012002E096
:101E0400012000E0002002B070BD0120FBE70120AA
:101E1400F9E70120F7E70120F5E70120F3E70120C6
:101E2400F1E70120EFE700BF0070004000380240F6
:101E34000000474200230F2B00F2E38070B582B00C
:101E440065E085684FEA430E032404FA0EF425EA9C
:101E54000405CC6804FA0EF42C438460446824EA34
:101E640002044A68C2F300129A40224342605CE0D2
:101E7400DC08083450F8242003F00705AD004FF0C7
:101E84000F0E0EFA05FE22EA0E0E0A69AA4042EA75
:101E94000E0240F824205CE0062200E0002202FA50
:101EA4000EF22A430234574D45F82420564A9468CA
:101EB4006FEA0C0224EA0C054E6816F4801F01D068
:101EC4004CEA0405504CA560E46802EA04054E6837
:101ED40016F4001F01D04CEA04054B4CE56064681D
:101EE40002EA04054E6816F4003F01D04CEA0405EA
:101EF400454C6560246822404D6815F4803F01D04C
:101F04004CEA0402404C226001330F2B77D80122A3
:101F14009A400C6804EA020C32EA0404F4D14C68D6
:101F240004F00304013C012C8BD94A6802F003023B
:101F3400032A09D0C4685D000322AA4024EA0204EB
:101F44008A68AA402243C2604A6802F00302022A55
:101F54008ED004684FEA430E032202FA0EF224EAFA
:101F640002044A6802F0030202FA0EF222430260FB
:101F74004A6812F4403FC7D000220192234A546CAD
:101F840044F480445464526C02F480420192019AF5
:101F94009C08A51C1B4A52F8255003F0030E4FEA77
:101FA4008E0E0F2202FA0EF225EA0205184A90421A
:101FB4003FF474AF02F58062904216D002F580625D
:101FC400904214D002F58062904212D002F58062F1
:101FD400904210D002F5806290420ED002F58062E9
:101FE40090423FF459AF072259E7012257E70222F2
:101FF40055E7032253E7042251E705224FE702B0D5
:1020040070BD704700380140003C01400038024078
:10201400000002400AB18161704709048161704780
:102024007047000008B5054B5B69034200D108BD49
:10203400024B5861FFF7F4FFF9E700BF003C014091
:1020440030B405682C6824F480242C600468636030
:102054008368402B05D0036899600368DA6030BC5C
:10206400704703689A600368D960F8E710B403689E
:10207400D9B210390A4AA2FB01421209094CA25CE6
:10208400C2655F2907D96FF3090304338365806D43
:102094005DF8044B70476FF309038365F7E700BFEE
:1020A400ABAAAAAA20270008836A826992B9012BE5
:1020B4000AD0022B02D00BB100207047C36A13F080
:1020C400807F28D100207047C36AB3F1C07F24D039
:1020D40000207047B2F5005F09D0022B25D9032BED
:1020E40025D1C36A13F0807F23D100207047032BCE
:1020F40003D8DFE803F01404140A00207047C36A0D
:1021040013F0807F0DD100207047C36AB3F1C07F04
:1021140009D000207047012070470120704701203A
:10212400704701207047012070470120704700204C
:10213400704701207047000070B5044600F060FA53
:10214400002C5BD00546022384F83530002384F844
:1021540034302268136823F00103136023681A687B
:1021640012F0010F0AD000F04BFA431B052BF5D9EE
:1021740020236365032084F8350070BD1A68204964
:1021840011406268A0680243E06802432069024388
:1021940060690243A0690243E0690243206A024382
:1021A4000A43616A04291ED01A602668756925F0FD
:1021B4000705636A1D43042B07D1A36A1D43E36A21
:1021C4001BB12046FFF770FF90B975612046FFF7F9
:1021D4004DFFE26D3F23934083600020606501233F
:1021E40084F83530C9E7E16A206B01430A43DBE731
:1021F40040236365012084F83500BEE70120BCE775
:102204003F8010F038B50446856D90F834000128FD
:102214002BD0012084F8340094F83500C0B2012892
:1022240004D0002384F83430022038BD022084F81E
:102234003500002060652046FFF702FFE26D3F2372
:102244009340AB602268136843F016031360236C59
:1022540023B12268136843F00803136022681368EB
:1022640043F0010313600020DFE70220DDE790F86C
:102274003530DBB2022B03D0802343650120704745
:10228400052380F835300268136823F001031360D6
:1022940000207047F0B583B0044600230193724BCD
:1022A4001D68724BA3FB0535AD0A876D3E68C26D90
:1022B40008239340334210D003681A6812F0040FC5
:1022C4000BD01A6822F004021A60C26D08239340EE
:1022D400BB60436D43F001034365E26D012393400A
:1022E400334209D02268526912F0800F04D0BB60D7
:1022F400636D43F002036365E26D0423934033424C
:1023040009D02268126812F0020F04D0BB60636D1A
:1023140043F004036365E26D10239340334224D0F9
:102324002268126812F0080F1FD0BB6023681A6875
:1023340012F4802F0DD01B6813F4002F04D1236CEA
:102344009BB12046984710E0A36C73B12046984790
:102354000BE01A6812F4807F03D11A6822F0080295
:102364001A60236C0BB120469847E26D20239340FA
:10237400334255D02268126812F0100F50D0BB605F
:1023840094F83530DBB2052B0ED023681A6812F4AA
:10239400802F33D01B6813F4002F2AD1636C002BD9
:1023A4003ED0204698473BE02268136823F016038A
:1023B40013602268536923F080035361236CA3B133
:1023C4002268136823F008031360E26D3F239340EF
:1023D400BB60012384F83530002384F83430236D46
:1023E400002B3FD0204698473CE0A36C002BE7D15C
:1023F400EBE7E36BA3B12046984711E01A6812F4A7
:10240400807F09D11A6822F010021A60012384F82F
:102414003530002384F83430E36B0BB12046984701
:10242400636DFBB1636D13F0010F17D0052384F8BE
:1024340035302268136823F001031360019B0133D4
:102444000193AB4204D823681B6813F0010FF5D144
:10245400012384F83530002384F83430E36C0BB165
:102464002046984703B0F0BD0C0C0020B5814E1BEC
:10247400002807DB00F01F02400901239340024AB1
:1024840042F82030704700BF00E100E0002808DB7C
:102494000901C9B200F1604000F5614080F8001301
:1024A400704700F00F000901C9B2014B195470477D
:1024B40014ED00E000B500F00700C0F1070CBCF11A
:1024C400040F28BF4FF0040C031D062B0FD9C31EA5
:1024D4004FF0FF3E0EFA0CF021EA000199400EFA8B
:1024E40003FE22EA0E0241EA02005DF804FB002327
:1024F400EEE70000074AD36823F4E0631B041B0CD7
:10250400000200F4E060034343F0BF6343F400338C
:10251400D360704700ED00E010B50446054BD86861
:10252400C0F30220FFF7C6FF01462046FFF7AEFFC7
:1025340010BD00BF00ED00E008B5FFF799FF08BD2E
:102544000138B0F1807F0BD24FF0E0235861054A87
:10255400F02182F823100020986107221A61704745
:102564000120704700ED00E010B504460E4B1A78C8
:102574004FF47A73B3FBF2F30C4A1068B0FBF3F038
:10258400FFF7DEFF68B90F2C01D901200AE0002211
:1025940021464FF0FF30FFF7BFFF054B1C600020C2
:1025A40000E0012010BD00BF040C00200C0C002032
:1025B400080C002008B50B4B1A6842F400721A602C
:1025C4001A6842F480621A601A6842F480721A60CF
:1025D4000320FFF78FFF0F20FFF7C6FFFEF7C0FBB6
:1025E400002008BD003C0240034A1168034B1B78DD
:1025F4000B441360704700BF240D0020040C00201E
:10260400014B1868704700BF240D0020034AD2F81C
:10261400883043F47003C2F88830704700ED00E05E
:10262400DFF834D0FFF7F2FF0C480D490D4A0023C0
:1026340002E0D458C4500433C4188C42F9D30A4A73
:102644000A4C002301E013600432A242FBD300F0E1
:1026540019F8FEF7BFF970470000022000000020BF
:10266400100C002048270008100C0020280D002022
:10267400FEE702440346934200D1704703F8011B6E
:10268400F9E7000070B50D4D0D4C641BA410002635
:10269400A64209D10B4D0C4C00F018F8641BA41091
:1026A4000026A64205D170BD55F8043B9847013673
:1026B400EEE755F8043B98470136F2E74027000857
:1026C400402700084027000844270008F8B500BF49
:1026D400F8BC08BC9E467047F8B500BFF8BC08BCFF
:0426E4009E46704757
:1026E80053696E6500000000536177746F6F7468FA
:1026F80000000000547269616E676C65000000009C
:102708005069616E6F00000047756974617200005E
:102718004472756D000000000006101600061016C1
:102728000000000000000000010203040607080979
:08273800FCDAFF7F0100000044
:04274000E9010008A3
:04274400C5010008C3
:102748003C0400400008000064080000C8080000BD
:102758002C0900008F090000F1090000520A00004E
:10276800B10A00000F0B00006B0B0000C50B000046
:102778001C0C0000710C0000C30C0000120D0000BE
:102788005F0D0000A70D0000ED0D00002E0E0000EB
:102798006C0E0000A60E0000DC0E00000D0F0000FD
:1027A8003A0F0000630F0000870F0000A70F00001A
:1027B800C20F0000D80F0000E90F0000F50F00005D
:1027C800FD0F0000FF0F0000FD0F0000F50F0000D7
:1027D800E90F0000D80F0000C20F0000A70F00008B
:1027E800870F0000630F00003A0F00000D0F000074
:1027F800DC0E0000A60E00006C0E00002E0E00007D
:10280800ED0D0000A70D00005F0D0000120D000087
:10281800C30C0000710C00001C0C0000C50B00006C
:102828006B0B00000F0B0000B10A0000520A0000F9
:10283800F10900008F0900002C090000C8080000F9
:1028480064080000000800009B070000370700002C
:10285800D3060000700600000E060000AD0500005B
:102868004E050000F0040000940400003A04000043
:10287800E30300008E0300003C030000ED020000AB
:10288800A00200005802000012020000D10100005E
:10289800930100005901000023010000F20000002C
:1028A800C50000009C0000007800000058000000EF
:1028B8003D00000027000000160000000A0000008C
:1028C8000200000000000000020000000A000000F2
:1028D80016000000270000003D000000580000001E
:1028E800780000009C000000C5000000F200000015
:1028F800230100005901000093010000D1010000EC
:102908001202000058020000A0020000ED020000C0
:102918003C0300008E030000E30300003A040000BB
:1029280094040000F00400004E050000AD0500000E
:102938000E06000070060000D306000037070000EE
:102948009B070000FF070000120D00005B07000056
:102958004808000015080000340D00007A07000040
:102968009807000027080000C0090000EC070000D5
:10297800EC070000F3070000DD070000B5050000C4
:102988003C0700002A080000E8070000FF070000D5
:102998000C0800000008000024080000FB070000E5
:1029A800EB07000057080000390700001208000074
:1029B8000408000085080000F2070000B80B0000BA
:1029C800EC040000CD050000380800007E09000076
:1029D8003A080000F806000006080000ED070000AD
:1029E800F7070000FA0F000065070000F60700006F
:1029F800F907000001090000E008000013070000C3
:102A0800CD0700007D0800000D080000DD0700006C
:102A180000080000FC0200006E0900002408000005
:102A28001A08000021000000B1080000F1070000AA
:102A3800EA07000075080000020800005F0B0000AC
:102A480058090000F10F0000C1070000E508000068
:102A5800F1070000420A0000850A00000D08000086
:102A68003408000006070000DD0700002808000001
:102A7800FE0700007E0A00006D0700000108000044
:102A88001A080000D507000009080000F707000031
:102A9800FF0700008708000008080000130800006E
:102AA800FF070000520B00000F080000E4070000B9
:102AB8001D080000D407000006080000F00600000A
:102AC800F507000017030000E7080000B107000041
:102AD800F3070000F9070000F907000028080000C4
:102AE800F8070000AA0600000A0800000E08000007
:102AF800EE070000020800006909000063080000F2
:102B0800B80800004E080000FC070000F7070000A6
:102B1800BF060000620800006909000054080000B0
:102B2800FE0F000065080000DB070000FA07000040
:102B380061060000B207000001020000D809000089
:102B4800FF070000FF070000C90800003D0900005A
:102B580071080000D8080000970700003F07000030
:102B6800C3080000CA07000042080000130800005C
:102B7800ED070000130800009C080000DC060000B8
:102B88000E080000FA0700001C080000FA06000002
:102B9800A60900008807000089070000D009000086
:102BA80039070000E7060000F9070000E407000005
:102BB80005080000F5070000EA070000A607000066
:102BC8000B08000004080000C7070000D707000032
:102BD800580800005807000080080000C0070000DF
:102BE800F2070000640700000F0800000D0800004D
:102BF8000D080000070800008C07000059080000B5
:102C0800F90700006D07000072070000EB080000DC
:102C18004A07000007090000AC0700005F07000032
:102C28000F090000C90700006F080000260800000F
:102C3800F6060000BC0700005D0800001D0B000040
:102C4800DE07000054070000490800005E08000085
:102C5800D0080000AD0800004B09000092060000F3
:102C68002409000029080000E40700001E080000ED
:102C78000E08000046090000750700000D08000056
:102C8800060800006D080000760800000007000034
:102C98006A0800002408000086060000BE0700003D
:102CA800C10600002F08000023080000F6070000F6
:102CB800F2070000A80700007E0700002A080000AD
:102CC800FE0700004B09000029070000300900003A
:102CD8003B0700006A080000450700004A09000099
:102CE800A5090000C307000001080000E107000073
:102CF800050800005A0800007307000007080000D4
:102D0800FE0700008D060000870800000308000089
:102D1800D7070000C1080000CF070000D307000054
:102D2800C806000028080000FA0600004009000054
:102D38008F0700009F060000230A0000110800000A
:102D4800FD070000FF07000074080000BC07000032
:102D5800340800000A0800001E080000FC070000F4
:102D68005B0800000E0800001D08000013080000A2
:102D780003080000D80700006409000019080000D3
:102D8800E8060000FA070000FD070000DC07000065
:102D98000A080000D307000034080000F10500000D
:102DA800FC070000FF08000002080000DA0B000022
:102DB80033060000D30600002A070000F6080000CA
:102DC800D3080000EB0500009F08000096070000EC
:102DD80016080000E80700001F080000F4060000BD
:102DE8006B0700009B0700000D080000B8080000F2
:102DF800F80600004E0800006D0700003B0B0000BD
:102E0800FA0700002A08000011080000080800005E
:102E1800F3070000B1070000F5070000D20A000020
:102E28009407000065090000EC0600009107000007
:102E3800C80700006F040000750700006406000062
:102E4800030800008A060000E90700007708000070
:102E58000A080000F0070000DE0700003F07000036
:102E680052080000B207000020080000CB0600004E
:102E7800D2090000B0080000E9070000300900008E
:102E8800C1080000060800003B080000DD0700003C
:102E98000908000004080000F1070000BD08000050
:102EA800100800001D0800007E070000440700000D
:102EB800EE070000CC070000C7080000010800006A
:102EC8004F0800006E090000EF0700003D080000F1
:102ED8001108000024080000F8070000830600001D
:102EE8004507000085070000F00700008208000081
:102EF80050080000D9070000E40700002E07000072
:102F08008C080000F50700001E080000C10700003B
:102F18000A08000020080000FC07000086070000DF
:102F280046070000580600004F0600003108000060
:102F3800D7080000FB07000038080000A4070000BD
:102F4800FF070000000000004000000080000000B3
:102F5800C0000000000100004001000080010000E6
:102F6800C0010000000200004002000080020000D2
:102F7800C0020000000300004003000080030000BE
:102F8800C0030000000400004004000080040000AA
:102F9800C004000000050000400500008005000096
:102FA800C005000000060000400600008006000082
:102FB800C00600000007000040070000800700006E
:102FC800C0070000000800003F0800007F0800005C
:102FD800BF080000FF0800003F0900007F0900004B
:102FE800BF090000FF0900003F0A00007F0A000037
:102FF800BF0A0000FF0A00003F0B00007F0B000023
:10300800BF0B0000FF0B00003F0C00007F0C00000E
:10301800BF0C0000FF0C00003F0D00007F0D0000FA
:10302800BF0D0000FF0D00003F0E00007F0E0000E6
:10303800BF0E0000FF0E00003F0F00007F0F0000D2
:10304800BF0F0000FF0F0000BF0F00007F0F000040
:103058003F0F0000FF0E0000BF0E00007F0E0000B3
:103068003F0E0000FF0D0000BF0D00007F0D0000A7
:103078003F0D0000FF0C0000BF0C00007F0C00009B
:103088003F0C0000FF0B0000BF0B00007F0B00008F
:103098003F0B0000FF0A0000BF0A00007F0A000083
:1030A8003F0A0000FF090000BF0900007F09000077
:1030B8003F090000FF080000BF0800007F0800006B
:1030C8003F08000000080000C0070000800700005B
:1030D8004007000000070000C0060000800600004E
:1030E8004006000000060000C00500008005000042
:1030F8004005000000050000C00400008004000036
:103108004004000000040000C00300008003000029
:103118004003000000030000C0020000800200001D
:103128004002000000020000C00100008001000011
:103138004001000000010000C00000008000000005
:1031480040000000000000002000000040000000D7
:103158006100000081000000A1000000C100000023
:10316800E20000000201000022010000420100000C
:103178006301000083010000A3010000C3010000F7
:10318800E4010000040200002402000044020000E0
:103198006502000085020000A5020000C5020000CB
:1031A800E6020000060300002603000046030000B4
:1031B8006703000087030000A7030000C70300009F
:1031C800E803000008040000280400004804000088
:1031D8006904000089040000A9040000C904000073
:1031E800EA0400000A0500002A0500004A0500005C
:1031F8006A0500008B050000AB050000CB05000048
:10320800EB0500000C0600002C0600004C06000030
:103218006C0600008D060000AD060000CD0600001B
:10322800ED0600000E0700002E0700004E07000004
:103238006E0700008F070000AF070000CF070000EF
:10324800EF070000100800003008000050080000D8
:103258007008000091080000B1080000D1080000C3
:10326800F1080000120900003209000052090000AC
:103278007209000093090000B3090000D309000097
:10328800F3090000140A0000340A0000540A000080
:10329800740A0000950A0000B50A0000D50A00006B
:1032A800F50A0000150B0000360B0000560B000055
:1032B800760B0000960B0000B70B0000D70B000040
:1032C800F70B0000170C0000380C0000580C000029
:1032D800780C0000980C0000B90C0000D90C000014
:1032E800F90C0000190D00003A0D00005A0D0000FD
:1032F8007A0D00009A0D0000BB0D0000DB0D0000E8
:10330800FB0D00001B0E00003C0E00005C0E0000D0
:103318007C0E00009C0E0000BD0E0000DD0E0000BB
:10332800FD0E00001D0F00003E0F00005E0F0000A4
:103338007E0F00009E0F0000BF0F0000DF0F00008F
:10334800FF0F000001000000100000000024F4003E
:0400000508002625A4
:00000001FF
